:040000000CEF1CF0F5
:100800000065204171756563656E646F21005465F4
:100810006D70657261747572613A00457376617AC4
:1008200069616E646F21004D6973747572616E64E5
:100830006F00456E6368656E646F210043656C737D
:1008400069757300252E326600494E46004E414EB2
:0D08500000696E66006E616E006C6600004F
:10085E00000E0001756F000E746F42C086F043C02B
:10086E0087F044C088F045C089F089BF43EF04F09B
:10087E0041EF04F059EF04F0000E756F010E746F26
:10088E0086C001F087C002F088C003F089C004F072
:10089E0068EC1CF001C086F002C087F003C088F03F
:1008AE0004C089F0000E00018D6F000E8C6FCDC05C
:1008BE0078F0CEC079F074517511D8A469EF04F0B8
:1008CE006BEF04F072EF04F0D1A570EF04F072EF4D
:1008DE0004F08CEF04F074517511D8A479EF04F084
:1008EE007BEF04F081EF04F0000E616F2B0E606F52
:1008FE0085EF04F0000E616F2D0E606F60C000F189
:10090E008C4B8D2B7807D8A0790786C001F087C055
:10091E0002F088C003F089C004F0DDEC16F001048B
:10092E000210D8A49DEF04F09FEF04F0EAEF04F05C
:10093E00BF0E476EFF0E486E4650496E4A6A4750CC
:10094E00492648504A224A5007E11A0E495CD8B04F
:10095E00B3EF04F0B5EF04F0C4EF04F0000E0001A5
:10096E008C25016E010E8D21026E490E036E080E4E
:10097E00046E24EC1BF0D1EF04F0000E00018C2568
:10098E00016E010E8D21026E510E036E080E046E65
:10099E0024EC1BF00001FD0E7827FF0E792340C0DA
:1009AE0011F041C012F0000E136E010E146E78C0DD
:1009BE0015F079C016F0A6EC18F011C040F012C078
:1009CE0041F035EF0AF086C001F087C002F088C012
:1009DE0003F089C004F0DDEC16F001500210D8A42B
:1009EE00FBEF04F0FDEF04F031EF05F0BF0E476EA4
:1009FE00FF0E486E4650496E4A6A47504926485087
:100A0E004A224A5007E11A0E495CD8B011EF05F0A0
:100A1E0013EF05F022EF05F0000E00018C25016E9C
:100A2E00010E8D21026E4D0E036E080E046E24EC27
:100A3E001BF0D1EF04F0000E00018C25016E010EAB
:100A4E008D21026E550E036E080E046E24EC1BF003
:100A5E00D1EF04F0000E00018E6F000E8F6F800E2E
:100A6E00906F3F0E916F000E8B6F000E8A6F86C0D7
:100A7E0001F087C002F088C003F089C004F0000EB8
:100A8E00056E000E066E000E076E000E086EC3ECAD
:100A9E0019F0D8B055EF05F057EF05F0DAEF05F085
:100AAE0076EF05F08EC00FF08FC010F090C011F0F1
:100ABE0091C012F0000E136E000E146E200E156E05
:100ACE00410E166EACEC0EF00FC08EF010C08FF013
:100ADE0011C090F012C091F000018A4B8B2B86C092
:100AEE0028F087C029F088C02AF089C02BF0000EAC
:100AFE00136E000E146E200E156E410E166E8EC005
:100B0E000FF08FC010F090C011F091C012F0ACEC4D
:100B1E000EF00FC02CF010C02DF011C02EF012C030
:100B2E002FF05BEC16F0D8B09FEF05F0A1EF05F0BB
:100B3E0059EF05F0C1EF05F08EC001F08FC002F045
:100B4E0090C003F091C004F0000E056E000E066E0C
:100B5E00200E076E410E086EC1EC10F001C08EF033
:100B6E0002C08FF003C090F004C091F000018A071C
:100B7E00D8A08B0786C028F087C029F088C02AF03D
:100B8E0089C02BF08EC02CF08FC02DF090C02EF0AF
:100B9E0091C02FF05BEC16F0D8A0D8EF05F0DAEF8D
:100BAE0005F0A3EF05F046C007F0086AA4EC1BF0B1
:100BBE00075000017B6F7BC07AF0670E7B19D8A4BB
:100BCE00EBEF05F0EDEF05F013EF06F0CF51D0117E
:100BDE00D8A4F4EF05F0F6EF05F0FAEF05F0000EED
:100BEE00D06F010ECF6FD0BF07EF06F0D05106E1E8
:100BFE00CF05D8B005EF06F007EF06F00DEF06F0C3
:100C0E00000E776F060E766F1CEF06F0CFC076F0F3
:100C1E00D0C077F01CEF06F0D0BF18EF06F01AEF39
:100C2E0006F007EF06F00DEF06F0670E7B19D8A45D
:100C3E0023EF06F025EF06F054EF06F08BAF33EFFF
:100C4E0006F0FC0E8A5DFF0E8B59D8A031EF06F030
:100C5E0033EF06F052EF06F0FF0E476EFF0E486EB2
:100C6E0076C049F077C04AF04750492648504A228C
:100C7E008A51495C4A50800A4B6E8B51800A4B5800
:100C8E00D8A04CEF06F04EEF06F052EF06F0660ECF
:100C9E007A6F54EF06F0650E7A6F76C06CF077C0FF
:100CAE006DF0670E7B19D8A45FEF06F061EF06F0CA
:100CBE0071EF06F0660E7A19D8A468EF06F06AEFA7
:100CCE0006F073EF06F08BBF71EF06F06FEF06F0D4
:100CDE0073EF06F06C4B6D2B660E7A19D8A47AEF73
:100CEE0006F07CEF06F09CEF06F08BBF83EF06F06C
:100CFE0081EF06F08FEF06F0000E8E6F000E8F6FF5
:100D0E00800E906F3F0E916F000E8B6F000E8A6FEC
:100D1E00670E7B19D8B496EF06F098EF06F09CEFAD
:100D2E0006F08A516C278B516D23000E856F000ED5
:100D3E00846F86C07CF087C07DF088C07EF089C04D
:100D4E007FF08EC06EF08FC06FF090C070F091C0CB
:100D5E0071F02DEF07F07CC001F07DC002F07EC077
:100D6E0003F07FC004F08EC005F08FC006F090C077
:100D7E0007F091C008F0C1EC10F001C01AF002C0EB
:100D8E001BF003C01CF004C01DF08EEC12F01AC054
:100D9E0080F01BC081F01CC082F01DC083F080C0AB
:100DAE0001F081C002F082C003F083C004F0D8ECE1
:100DBE0015F001C072F002C073F07CC038F07DC037
:100DCE0039F07EC03AF07FC03BF08EC013F08FC07A
:100DDE0014F090C015F091C016F080C00FF081C0D5
:100DEE0010F082C011F083C012F0ACEC0EF00FC008
:100DFE003CF010C03DF011C03EF012C03FF0C7EC09
:100E0E001BF038C07CF039C07DF03AC07EF03BC09C
:100E1E007FF08EC001F08FC002F090C003F091C041
:100E2E0004F0000E056E000E066E200E076E410ECB
:100E3E00086EC1EC10F001C08EF002C08FF003C03E
:100E4E0090F004C091F00001844B852B6C51845DB1
:100E5E008551800A476E6D51800A4758D8A03AEFE7
:100E6E0007F03CEF07F0B2EF06F08EC00FF08FC028
:100E7E0010F090C011F091C012F0000E136E000E23
:100E8E00146EA00E156E400E166EACEC0EF00FC06A
:100E9E0080F010C081F011C082F012C083F07CC0CF
:100EAE0028F07DC029F07EC02AF07FC02BF080C0D4
:100EBE002CF081C02DF082C02EF083C02FF05BECA1
:100ECE0016F0D8B06DEF07F06FEF07F07AEF07F07E
:100EDE00000E0001806F000E816F000E826F000EFB
:100EEE00836FA3EF07F07CC001F07DC002F07EC0DF
:100EFE0003F07FC004F080C005F081C006F082C010
:100F0E0007F083C008F0C3EC19F0D8A091EF07F0FA
:100F1E0093EF07F0A3EF07F0000172B199EF07F01E
:100F2E009BEF07F0A3EF07F0000E806F000E816FAE
:100F3E00000E826F000E836F86C028F087C029F0E6
:100F4E0088C02AF089C02BF080C02CF081C02DF013
:100F5E0082C02EF083C02FF036EC0AF028C07CF051
:100F6E0029C07DF02AC07EF02BC07FF07CC028F017
:100F7E007DC029F07EC02AF07FC02BF0000E136ECC
:100F8E00000E146E200E156E410E166E6EC00FF012
:100F9E006FC010F070C011F071C012F0ACEC0EF01A
:100FAE000FC02CF010C02DF011C02EF012C02FF07B
:100FBE005BEC16F0D8A0E6EF07F0E8EF07F011EFC4
:100FCE0008F000018A4B8B2B6EC00FF06FC010F033
:100FDE0070C011F071C012F0000E136E000E146E80
:100FEE00200E156E410E166EACEC0EF00FC06EF0AC
:100FFE0010C06FF011C070F012C071F0660E0001DB
:10100E007A19D8A40DEF08F00FEF08F011EF08F0E1
:10101E006C4B6D2B6EC08EF06FC08FF070C090F069
:10102E0071C091F0650E00017A19D8B421EF08F065
:10103E0023EF08F029EF08F08AC06AF08BC06BF03E
:10104E002DEF08F0000E6B6F000E6A6F000E696FC9
:10105E00000E686F000E676F000E666F000E856FD4
:10106E00000E846F28EF09F07CC001F07DC002F005
:10107E007EC003F07FC004F08EC005F08FC006F076
:10108E0090C007F091C008F0C1EC10F001C01AF04A
:10109E0002C01BF003C01CF004C01DF08EEC12F059
:1010AE001AC080F01BC081F01CC082F01DC083F0FE
:1010BE0080C001F081C002F082C003F083C004F052
:1010CE00D8EC15F001C072F002C073F00001D1B976
:1010DE0073EF08F075EF08F092EF08F0725173118C
:1010EE00D8A47CEF08F07EEF08F092EF08F0670EC0
:1010FE007B19D8A485EF08F087EF08F092EF08F07F
:10110E006BBF8EEF08F08CEF08F092EF08F0664B95
:10111E00672BDCEF08F068516911D8A499EF08F03D
:10112E009BEF08F0C5EF08F06BBFA2EF08F0A0EF41
:10113E0008F0C5EF08F0000E8C25D96E010E8D213A
:10114E00DA6E2E0EDF6E8C4B8D2B7807D8A07907BA
:10115E00000E696F010E686FC5EF08F0000E8C254A
:10116E00D96E010E8D21DA6E300EDF6E8C4B8D2B0B
:10117E007807D8A079076607D8A067076651671168
:10118E00D8A4CCEF08F0CEEF08F0B5EF08F0000EC3
:10119E008C25D96E010E8D21DA6E7251300FDF6EF5
:1011AE008C4B8D2B7807D8A079077CC038F07DC08A
:1011BE0039F07EC03AF07FC03BF08EC013F08FC086
:1011CE0014F090C015F091C016F080C00FF081C0E1
:1011DE0010F082C011F083C012F0ACEC0EF00FC014
:1011EE003CF010C03DF011C03EF012C03FF0C7EC15
:1011FE001BF038C07CF039C07DF03AC07EF03BC0A9
:10120E007FF08EC001F08FC002F090C003F091C04D
:10121E0004F0000E056E000E066E200E076E410ED7
:10122E00086EC1EC10F001C08EF002C08FF003C04A
:10123E0090F004C091F000016A07D8A06B07844BB0
:10124E00852B6C51845D8551800A476E6D51800AE5
:10125E004758D8B035EF09F037EF09F045EF09F0F0
:10126E008DBF43EF09F08D5109E14B0E8C5DD8A077
:10127E0043EF09F045EF09F03BEF08F068516911B3
:10128E00D8A44CEF09F04EEF09F05FEF09F0D1A9A9
:10129E0053EF09F055EF09F05FEF09F0000E8C25C2
:1012AE00D96E010E8D21DA6E2E0EDF6E8C4B8D2BCC
:1012BE00000E8C25D96E010E8D21DA6E000EDF6EBA
:1012CE00650E7A19D8A46EEF09F070EF09F0D6EF1B
:1012DE0004F0000E856F4F0E846F000E8425D96EBC
:1012EE00010E8521DA6E000EDF6E000E756F000E98
:1012FE00746F8BBF87EF09F085EF09F08FEF09F060
:10130E00000E756F010E746F8A6D8B1FD8B08B2B0C
:10131E00000E776F020E766FC0EF09F08407D8A02B
:10132E008507000E8425D96E010E8521DA6E8AC0DE
:10133E0001F08BC002F0000E046E0A0E036E6BEC11
:10134E0019F00150300FDF6E8AC001F08BC002F031
:10135E00000E046E0A0E036E09EC19F001C08AF03D
:10136E0002C08BF000017607D8A077077807D8A0C7
:10137E0079078A518B11D8A4C7EF09F0C9EF09F08C
:10138E0095EF09F077BFD6EF09F0775106E17605B4
:10139E00D8B0D4EF09F0D6EF09F095EF09F0840735
:1013AE00D8A0850774517511D8A4E0EF09F0E2EFCB
:1013BE0009F0E8EF09F0000E636F2B0E626FECEF91
:1013CE0009F0000E636F2D0E626F000E8425D96E2C
:1013DE00010E8521DA6E62C0DFFF7807D8A079078B
:1013EE008407D8A08507BF0E476EFF0E486E465085
:1013FE00496E4A6A4750492648504A224A5009E1E6
:10140E001A0E495CD8A00EEF0AF010EF0AF016EF94
:10141E000AF0000E656F650E646F1AEF0AF0000E8B
:10142E00656F450E646F000E8425D96E010E852101
:10143E00DA6E64C0DFFF7807D8A07907000E8C251E
:10144E00016E010E8D21026E000E8425036E010EBB
:10145E008521046E24EC1BF0D6EF04F012002B5005
:10146E00800B346E2B502B24366E2AAE41EF0AF0D1
:10147E0043EF0AF044EF0AF036803650D8B44AEF04
:10148E000AF04CEF0AF061EF0AF03628D8A452EFBA
:10149E000AF054EF0AF05CEF0AF0000E286E000E10
:1014AE00296E000E2A6E000E2B6E2A8E000E2B6EEB
:1014BE0069EF0AF0000E286E000E296E000E2A6EDD
:1014CE00000E2B6E2F50800B356E34503518D8B45D
:1014DE0073EF0AF075EF0AF076EF0AF0348C2F50A6
:1014EE002F24356E2EAE7EEF0AF080EF0AF081EFDC
:1014FE000AF035803550D8B487EF0AF089EF0AF03C
:10150E009EEF0AF03528D8A48FEF0AF091EF0AF07B
:10151E0099EF0AF0000E2C6E000E2D6E000E2E6E40
:10152E00000E2F6E2E8E000E2F6EA6EF0AF0000EFE
:10153E002C6E000E2D6E000E2E6E000E2F6E36507F
:10154E00355CD8B0ADEF0AF0AFEF0AF0D6EF0AF087
:10155E0034ACB4EF0AF0B6EF0AF0B8EF0AF0800E32
:10156E00341A36C037F035C036F037C035F028C0E3
:10157E0037F02CC028F037C02CF029C037F02DC022
:10158E0029F037C02DF02AC037F02EC02AF037C010
:10159E002EF02BC037F02FC02BF037C02FF0000EDF
:1015AE00376E365035C030F0316A305E000E315A2B
:1015BE0031BEEBEF0AF0315009E11A0E305CD8A0C3
:1015CE00EBEF0AF0EDEF0AF024EF0BF028502910A4
:1015DE002A102B10D8A4F6EF0AF0F9EF0AF0010E3C
:1015EE00FAEF0AF0000E376E000E286E000E296E0E
:1015FE00000E2A6E000E2B6E35C036F02DEF0BF05E
:10160E0037A00CEF0BF00EEF0BF014EF0BF0D890A1
:10161E0037300109376E16EF0BF0D890373228A00D
:10162E001BEF0BF01DEF0BF01EEF0BF0378E2B3474
:10163E002B322A3229322832362A3550365CD8A03F
:10164E002BEF0BF02DEF0BF007EF0BF034BC32EF5E
:10165E000BF034EF0BF074EF0BF03650D8A43AEFDA
:10166E000BF03CEF0BF046EF0BF0000E286E000E69
:10167E00296E000E2A6E000E2B6E95EF0CF02C507C
:10168E0028262D5029222E502A222F502B222BA0D5
:10169E0053EF0BF055EF0BF001EF0CF037A05AEFB4
:1016AE000BF05CEF0BF062EF0BF0D89037300109C6
:1016BE00376E64EF0BF0D890373228A069EF0BF03D
:1016CE006BEF0BF06CEF0BF0378E2B342B322A3284
:1016DE0029322832362A01EF0CF02C50285C2D507E
:1016EE0029582E502A582B50800A306E2F50800ABF
:1016FE003058D8B085EF0BF087EF0BF0B2EF0BF050
:10170E0028502C5C306E29502D58316E2A502E5890
:10171E00326E2B502F58336EFF0E3024286EFF0E74
:10172E003120296EFF0E32202A6EFF0E33202B6ED3
:10173E00800E341A376C3750D8A4A8EF0BF0AAEFEE
:10174E000BF0BAEF0BF0010E2826000E29222A22EA
:10175E002B22BAEF0BF02C50285E2D50295A2E500A
:10176E002A5A2F502B5A285029102A102B10D8A441
:10177E00C3EF0BF0C5EF0BF0FAEF0BF03750D8A418
:10178E00CBEF0BF0CDEF0BF0FAEF0BF0000E286E57
:10179E00000E296E000E2A6E000E2B6E95EF0CF0C9
:1017AE00D890283629362A362B3637AEE1EF0BF095
:1017BE00E3EF0BF0E4EF0BF0288037A0E9EF0BF02E
:1017CE00EBEF0BF0EFEF0BF0D8803736F1EF0BF0BD
:1017DE00D89037363650D8B4F7EF0BF0F9EF0BF050
:1017EE00FAEF0BF036062AAEFFEF0BF001EF0CF01E
:1017FE00D7EF0BF0000E356E37AE08EF0CF00AEF98
:10180E000CF022EF0CF037C030F07F0E3016D8B44B
:10181E0013EF0CF015EF0CF019EF0CF0010E356E06
:10182E0022EF0CF028A01EEF0CF020EF0CF022EFB0
:10183E000CF015EF0CF03550D8B428EF0CF02AEF61
:10184E000CF055EF0CF0010E2826000E29222A224C
:10185E002B222BA035EF0CF037EF0CF055EF0CF0E0
:10186E0028C030F029C031F02AC032F02BC033F03E
:10187E003334333232323132303230C028F031C06C
:10188E0029F032C02AF033C02BF03628D8B452EFEC
:10189E000CF054EF0CF055EF0CF0362A3628D8B475
:1018AE005BEF0CF05DEF0CF065EF0CF03650D8A44A
:1018BE0063EF0CF065EF0CF077EF0CF0000E286E76
:1018CE00000E296E000E2A6E000E2B6E3650D8A416
:1018DE0073EF0CF075EF0CF077EF0CF0000E346E2A
:1018EE0036A07CEF0CF07EEF0CF081EF0CF02A8E20
:1018FE0082EF0CF02A9ED89036302B6E34AE8AEFE3
:10190E000CF08CEF0CF08DEF0CF02B8E28C028F025
:10191E0029C029F02AC02AF02BC02BF012004EC08D
:10192E00D9FF4FC0DAFFDECFF6FFDDCFF7FF08009D
:10193E00F550250AD8A4A6EF0CF0A8EF0CF090EF06
:10194E000EF04EC0D9FF4FC0DAFFDE2A000EDD22A8
:10195E00000E0001CE6F000ECD6FCDC0D1F0CEC007
:10196E00D2F0CF69D0694EC0D9FF4FC0DAFFDECFBB
:10197E00F6FFDDCFF7FF0800F5502E0AD8A4CAEF08
:10198E000CF0CCEF0CF03CEF0DF0000ED06F000E13
:10199E00CF6F4EC0D9FF4FC0DAFFDE2A000EDD2218
:1019AE004EC0D9FF4FC0DAFFDECFF6FFDDCFF7FF17
:1019BE000800F5502A0AD8A4E7EF0CF0E9EF0CF076
:1019CE0006EF0DF04EC0D9FF4FC0DAFFDE2A000E33
:1019DE00DD2250C0D9FF51C0DAFFDFCF52F0020E28
:1019EE00DE26DFCF53F0000EDD2252C0D9FF53C0EA
:1019FE00DAFFDECFCFF0DDCFD0F03CEF0DF04EC0F2
:101A0E00D9FF4FC0DAFFDECF08F0DDCF09F02DECA5
:101A1E0015F008C0CFF009C0D0F01DEF0DF04EC08C
:101A2E00D9FF4FC0DAFFDE2A000EDD22D00E526E35
:101A3E00FF0E536E4EC0D9FF4FC0DAFFDECFF6FF5A
:101A4E00DDCFF7FF0800F550546E556A52505426FC
:101A5E0053505522555009E10A0E545CD8A03AEF66
:101A6E000DF03CEF0DF016EF0DF04EC0D9FF4FC04C
:101A7E00DAFFDECFF6FFDDCFF7FF0800F550076E79
:101A8E00086AA4EC1BF007505A6E5A50D8B452EFA5
:101A9E000DF054EF0DF08CEF0DF04EC0D9FF4FC08E
:101AAE00DAFFDECF52F0DDCF53F0010E5226000EDC
:101ABE00532252C0F6FF53C0F7FF0800F550076ED1
:101ACE00086AA4EC1BF007505B6E5B50D8B472EF43
:101ADE000DF074EF0DF08CEF0DF04EC0D9FF4FC02E
:101AEE00DAFFDECF52F0DDCF53F0020E5226000E9B
:101AFE00532252C0F6FF53C0F7FF0800F550076E91
:101B0E00086AA4EC1BF007505C6E660E5A18D8A437
:101B1E0093EF0DF095EF0DF0D5EF0DF04EC0D9FF10
:101B2E004FC0DAFFDECFF6FFDDCFF7FF0800F5CFAF
:101B3E005DF04EC0D9FF4FC0DAFFDE2A000EDD2267
:101B4E0050C0D9FF51C0DAFFDFCF52F0040EDE26AF
:101B5E00DFCF53F0000EDD2252C0D9FF53C0DAFFA3
:101B6E00DECF56F0DECF57F0DECF58F0DECF59F095
:101B7E004CC040F04DC041F056C042F057C043F04B
:101B8E0058C044F059C045F05DC046F02FEC04F04B
:101B9E0040C04CF041C04DF0ABEF0EF05A0E016E4E
:101BAE00000E026E590E036E080E046E000E066EC7
:101BBE00020E056ED6EC17F001500210D8A4EAEF13
:101BCE000DF0ECEF0DF05AEF0EF04EC0D9FF4FC0F6
:101BDE00DAFFDECF52F0DDCF53F0010E5226000EAB
:101BEE00532252C0F6FF53C0F7FF0800F5CF5DF049
:101BFE00BF0E526EFF0E536E4EC0D9FF4FC0DAFFAE
:101C0E00DECFF6FFDDCFF7FF0800F550546E556AB4
:101C1E005250542653505522555007E11A0E545C1B
:101C2E00D8B01CEF0EF01EEF0EF038EF0EF050C0D5
:101C3E00D9FF51C0DAFFDFCF52F0040EDE26DFCF20
:101C4E0053F0000EDD2252C0D9FF53C0DAFFDECFB3
:101C5E0056F0DECF57F0DECF58F0DECF59F050EF12
:101C6E000EF050C0D9FF51C0DAFFDFCF52F0040E94
:101C7E00DE26DFCF53F0000EDD2252C0D9FF53C057
:101C8E00DAFFDECF56F0DECF57F0DECF58F0DECFE4
:101C9E0059F0020E4EC0D9FF4FC0DAFFDE26000EFD
:101CAE00DD22BFEF0DF04EC0D9FF4FC0DAFFDECF01
:101CBE00F6FFDDCFF7FF0800F550250AD8A46AEF2E
:101CCE000EF06CEF0EF083EF0EF04EC0D9FF4FC04A
:101CDE00DAFFDE2A000EDD22000E026E250E016EE8
:101CEE004CC003F04DC004F041EC18F0000E4D6EE8
:101CFE00010E4C6EABEF0EF04EC0D9FF4FC0DAFFA7
:101D0E00DE2A000EDD22000E4D6E000E4C6EABEF85
:101D1E000EF04EC0D9FF4FC0DAFFDECFF6FFDDCF9B
:101D2E00F7FF0800F550016E026A4CC003F04DC07B
:101D3E0004F041EC18F04EC0D9FF4FC0DAFFDE2A96
:101D4E00000EDD227DEF0EF012001250800B1B6E86
:101D5E0012501224216E11AEB7EF0EF0B9EF0EF045
:101D6E00BAEF0EF021802150D8B4C0EF0EF0C2EFC2
:101D7E000EF0D5EF0EF02128D8A4C8EF0EF0CAEF62
:101D8E000EF0D2EF0EF0000E0F6E000E106E000E63
:101D9E00116E000E126E118EDDEF0EF0000E0F6E34
:101DAE00000E106E000E116E000E126E1650800B8D
:101DBE001B1A16501624206E15AEE8EF0EF0EAEF41
:101DCE000EF0EBEF0EF020802050D8B4F1EF0EF0B5
:101DDE00F3EF0EF006EF0FF02028D8A4F9EF0EF077
:101DEE00FBEF0EF003EF0FF0000E136E000E146EED
:101DFE00000E156E000E166E158E0EEF0FF0000E05
:101E0E00136E000E146E000E156E000E166E205020
:101E1E00D8B414EF0FF016EF0FF01EEF0FF02150A5
:101E2E00D8A41CEF0FF01EEF0FF028EF0FF0000EEE
:101E3E000F6E000E106E000E116E000E126EC0EFC1
:101E4E0010F015500F02F3CF26F0F4CF27F02650E6
:101E5E001C6E1D6A1E6A1F6A2750226E236A246A30
:101E6E00256A14501002F3CF26F0F4CF27F0265037
:101E7E001C26000E1D221E221F2227502226000E77
:101E8E0023222422252213501102F3CF26F0F4CF61
:101E9E0027F026501C26000E1D221E221F22275020
:101EAE002226000E2322242225221EC01FF01DC032
:101EBE001EF01CC01DF01C6A13501002F3CF26F04A
:101ECE00F4CF27F026501C2627501D22000E1E226E
:101EDE00000E1F2214500F02F3CF26F0F4CF27F07E
:101EEE0026501C2627501D22000E1E22000E1F22D9
:101EFE001EC01FF01DC01EF01CC01DF01C6A13502A
:101F0E000F02F3CF26F0F4CF27F026501C262750D1
:101F1E001D22000E1E22000E1F2215501002F3CF9E
:101F2E0026F0F4CF27F02650222627502322000E2B
:101F3E002422000E252214501102F3CF26F0F4CFE6
:101F4E0027F02650222627502322000E2422000E90
:101F5E00252215501102F3CF26F0F4CF27F026508C
:101F6E00176E2750186E196A1A6A19C01AF018C01F
:101F7E0019F017C018F0176A17502226185023228E
:101F8E00195024221A5025221CC017F01DC018F01B
:101F9E001EC019F01FC01AF0190EDBEF0FF0D8900B
:101FAE001A32193218321732E82ED6EF0FF01750B8
:101FBE00222618502322195024221A5025221EC0E0
:101FCE001FF01DC01EF01CC01DF01C6A205021C049
:101FDE0017F0186A1726000E1822820E1724266E86
:101FEE00FF0E1820276E11EF10F0D89022362336F0
:101FFE00243625361FAE06EF10F008EF10F009EF6D
:10200E0010F02280D8901C361D361E361F3626063E
:10201E00D8A0270624AE16EF10F018EF10F0FCEF44
:10202E000FF0000E206E1FAE1FEF10F021EF10F01C
:10203E0045EF10F0FF0E1C14176EFF0E1D14186ED8
:10204E00FF0E1E14196E7F0E1F141A6E17501810E5
:10205E0019101A10D8B436EF10F038EF10F03CEF1C
:10206E0010F0010E206E45EF10F022A041EF10F09F
:10207E0043EF10F045EF10F038EF10F02050D8B4C9
:10208E004BEF10F04DEF10F071EF10F0010E222615
:10209E00000E23222422252225A058EF10F05AEFFD
:1020AE0010F071EF10F022C017F023C018F024C00A
:1020BE0019F025C01AF01A341A32193218321732A2
:1020CE0017C022F018C023F019C024F01AC025F052
:1020DE00264A272A27BE7CEF10F0275008E1262833
:1020EE00D8A07CEF10F07EEF10F088EF10F0000E0D
:1020FE00226E000E236E800E246E7F0E256EB6EFBE
:10210E0010F027BE95EF10F0275006E12604D8B048
:10211E0093EF10F095EF10F0A1EF10F0000E226E7D
:10212E00000E236E000E246E000E256E000E1B6E2A
:10213E00B6EF10F026C021F0FF0E2216FF0E23166A
:10214E007F0E2416000E251621A0B0EF10F0B2EF70
:10215E0010F0B3EF10F0248ED8902130256E1B5066
:10216E00251222C00FF023C010F024C011F025C09C
:10217E0012F012000450800B116E04500424186EDD
:10218E0003AECCEF10F0CEEF10F0CFEF10F01880C2
:10219E001850D8B4D5EF10F0D7EF10F0ECEF10F0D8
:1021AE001828D8A4DDEF10F0DFEF10F0E7EF10F0F5
:1021BE00000E016E000E026E000E036E000E046E17
:1021CE00038E000E046EF4EF10F0000E016E000E82
:1021DE00026E000E036E000E046E0850800B111A74
:1021EE0008500824196E07AEFFEF10F001EF11F042
:1021FE0002EF11F019801950D8B408EF11F00AEF60
:10220E0011F01FEF11F01928D8A410EF11F012EFF2
:10221E0011F01AEF11F0000E056E000E066E000E94
:10222E00076E000E086E078E000E086E27EF11F077
:10223E00000E056E000E066E000E076E000E086E86
:10224E000550061007100810D8A430EF11F032EF29
:10225E0011F04AEF11F0000E016E000E026E000E2C
:10226E00036E000E046E800E03127F0E04121150C8
:10227E00041201C001F002C002F003C003F004C05A
:10228E0004F08DEF12F01850D8A450EF11F052EF69
:10229E0011F05CEF11F0000E016E000E026E000EDA
:1022AE00036E000E046E8DEF12F0195018C009F077
:1022BE000A6A095E000E0A5A7F0E0924126E000E7B
:1022CE000A20136E01C00DF002C00EF003C00FF015
:1022DE0004C010F0000E016E000E026E000E036EB2
:1022EE00000E046E000E146E000E156E000E166EAD
:1022FE00000E176E000E196EBDEF11F01950D8B406
:10230E008BEF11F08DEF11F0A4EF11F0D8900D3688
:10231E000E360F361036D890013602360336043696
:10232E0017AE9CEF11F09EEF11F09FEF11F00180B0
:10233E00D890143615361636173605500D5C0650E5
:10234E000E5807500F5808501058D8A0B1EF11F082
:10235E00B3EF11F0BCEF11F0178C05500D5E065067
:10236E000E5A07500F5A0850105A192A190E19648E
:10237E00C3EF11F0C5EF11F085EF11F00D500E10F7
:10238E000F101010D8B4CEEF11F0D0EF11F0E8EF1F
:10239E0011F01480E8EF11F0D890013602360336B2
:1023AE00043617AEDDEF11F0DFEF11F0E0EF11F0B4
:1023BE000180D89014361536163617361206D8A068
:1023CE00130603AEEDEF11F0EFEF11F0D3EF11F0B6
:1023DE00000E196E17AEF6EF11F0F8EF11F01CEFBC
:1023EE0012F0FF0E1414096EFF0E15140A6EFF0E76
:1023FE0016140B6E7F0E17140C6E09500A100B106C
:10240E000C10D8B40DEF12F00FEF12F013EF12F014
:10241E00010E196E1CEF12F001A018EF12F01AEF58
:10242E0012F01CEF12F00FEF12F01950D8B422EF89
:10243E0012F024EF12F048EF12F0010E0126000EFA
:10244E0002220322042204A02FEF12F031EF12F029
:10245E0048EF12F001C009F002C00AF003C00BF001
:10246E0004C00CF00C340C320B320A32093209C0A3
:10247E0001F00AC002F00BC003F00CC004F0124AC7
:10248E00132A13BE53EF12F0135008E11228D8A0EE
:10249E0053EF12F055EF12F060EF12F0000E136EC4
:1024AE001268000E016E000E026E000E036E000E1C
:1024BE00046E13BE6DEF12F0135006E11204D8B085
:1024CE006BEF12F06DEF12F07BEF12F0000E136E49
:1024DE00000E126E000E016E000E026E000E036EE6
:1024EE00000E046E000E116E12C018F018A082EFCE
:1024FE0012F084EF12F087EF12F0038E88EF12F0D5
:10250E00039ED8901830046E3EEF11F01200C3C037
:10251E002AF0C4C02BF0C5C02CF0C6C02DF01AC0D6
:10252E002AF01BC02BF01CC02CF01DC02DF0810E0C
:10253E001E6EFF0E1F6E2AC020F02BC021F02CC085
:10254E0022F02DC023F0180EB2EF12F0D8902332E5
:10255E00223221322032E82EADEF12F020501E240E
:10256E00286E000E1F20296E29BEC7EF12F02950CB
:10257E0009E1170E285CD8A0C7EF12F0C9EF12F0D0
:10258E00D3EF12F01AC01AF01BC01BF01CC01CF0C7
:10259E001DC01DF096EF13F029BED8EF12F0DAEF42
:1025AE0012F04AEF13F028C01EF0FF0E1F6EFF0E42
:1025BE00206E7F0E216E000E226E1E66E9EF12F067
:1025CE00F1EF12F022342232213220321F321E2E2F
:1025DE00E4EF12F01FC024F020C025F021C026F039
:1025EE0022C027F024502A141E6E25502B141F6E65
:1025FE0026502C14206E27502D14216E1E501F10A5
:10260E0020102110D8A40EEF13F010EF13F012EFDC
:10261E0013F0C9EF12F02AC01EF02BC01FF02CC011
:10262E0020F02DC021F0200E22EF13F0D890213291
:10263E0020321F321E32E82E1DEF13F01E501F10D7
:10264E0020102110D8B42EEF13F030EF13F038EF26
:10265E0013F024502A2625502B2226502C222750A8
:10266E002D22241C1E6E251C1F6E261C206E271C60
:10267E00216E1E502A161F502B1620502C1621503C
:10268E002D168EEF13F02AC01EF02BC01FF02CC09B
:10269E0020F02DC021F0200E5AEF13F0D8902132E9
:1026AE0020321F321E32E82E55EF13F01E501F102F
:1026BE0020102110D8A466EF13F068EF13F072EF1C
:1026CE0013F0000E2A6E000E2B6E000E2C6E000EF6
:1026DE002D6E8EEF13F0D8902A341E6E2B341F6E93
:1026EE002C34206E2D34216E1E501F102010211000
:1026FE00D8B484EF13F086EF13F08EEF13F0000EC4
:10270E002A6E000E2B6E800E2C6EBF0E2D6E2AC002
:10271E001AF02BC01BF02CC01CF02DC01DF01200A7
:10272E00096E0950D8B49EEF13F0A0EF13F0C2EF6C
:10273E0013F004BEA7EF13F0A5EF13F0C2EF13F0E2
:10274E0001C005F002C006F003C007F004C008F097
:10275E00051E061E071E081E052A000E062207224B
:10276E00082205C00BF006C00CF007C00DF008C023
:10277E000EF0CAEF13F001C00BF002C00CF003C054
:10278E000DF004C00EF00150021003100410D8A476
:10279E00D3EF13F0D5EF13F0DFEF13F0000E016E51
:1027AE00000E026E000E036E000E046E70EF14F03B
:1027BE00960E0A6EE9EF13F00A2AD8900E320D32F9
:1027CE000C320B32000E0B14056E000E0C14066E3E
:1027DE00000E0D14076EFE0E0E14086E0550061038
:1027EE0007100810D8A4FEEF13F000EF14F0E3EF7B
:1027FE0013F00EEF14F00A2A010E0B26000E0C2217
:10280E000D220E22D8900E320D320C320B32000EEB
:10281E000B14056E000E0C14066E000E0D14076ED2
:10282E00FF0E0E14086E0550061007100810D8A4DF
:10283E0023EF14F025EF14F002EF14F02DEF14F047
:10284E000A06D8900B360C360D360E360DBE32EF0C
:10285E0014F034EF14F03CEF14F0020E0A603AEF6D
:10286E0014F03CEF14F027EF14F00AB041EF14F01F
:10287E0043EF14F044EF14F00D9ED8900A320AC0C4
:10288E0005F0066A076A086A05C008F0076A066A54
:10289E00056A05500B1206500C1207500D12085007
:1028AE000E120950D8B45EEF14F060EF14F068EF1A
:1028BE0014F004BE67EF14F065EF14F068EF14F037
:1028CE000E8E0BC001F00CC002F00DC003F00EC056
:1028DE0004F01200000E0001BD6F000EBE6FA00EC0
:1028EE00BF6F410EC06F010EE9EC1CF012EC1DF033
:1028FE00000E096E010E086E000E0B6E010E0A6EB2
:10290E000E0E0C6E080E0D6EBBEC1CF0000E096E5A
:10291E00020E086E000E0B6E080E0A6E3C0E0C6E4A
:10292E00080E0D6EBBEC1CF013EF15F0D3EC1CF083
:10293E0001C0BBF002C0BCF0BBC001F0BCC002F0D5
:10294E00036A046A000E97EC13F001C00FF002C088
:10295E0010F003C011F004C012F00A0E136E280E10
:10296E00146EA00E156E3B0E166EACEC0EF00FC074
:10297E00B7F010C0B8F011C0B9F012C0BAF0000E26
:10298E00136E000E146E400E156E410E166EB7C00D
:10299E000FF0B8C010F0B9C011F0BAC012F0ACEC24
:1029AE000EF00FC028F010C029F011C02AF012C08E
:1029BE002BF0000E2C6E000E2D6EA00E2E6E410E04
:1029CE002F6E36EC0AF028C0BDF029C0BEF02AC02A
:1029DE00BFF02BC0C0F0AD0E0001986F000E996FC6
:1029EE00440E9A6F080E9B6FBDC09CF0BEC09DF04A
:1029FE00BFC09EF0C0C09FF052EC1BF0000E096EDF
:102A0E00020E086E000E0B6E010E0A6EAD0E0C6EEF
:102A1E00000E0D6EBBEC1CF0BDC001F0BEC002F08E
:102A2E00BFC003F0C0C004F0000E056E000E066EAF
:102A3E00A00E076E420E086EC3EC19F0D8A02AEF56
:102A4E0015F02CEF15F09DEF14F01200000E116E24
:102A5E00000E106E000E0F6E000E0E6E39EF15F09A
:102A6E00084A092A08C0F6FF09C0F7FF0800F5500A
:102A7E00200AD8B445EF15F047EF15F037EF15F0F3
:102A8E00F70E0A6EFF0E0B6E08C0F6FF09C0F7FFB9
:102A9E000800F5500C6E0D6A0A500C260B500D22D4
:102AAE000D5009E1050E0C5CD8A060EF15F062EF39
:102ABE0015F037EF15F06CEF15F0000E0F6E010EDE
:102ACE000E6E084A092AA1EF15F008C0F6FF09C0DC
:102ADE00F7FF0800F5500A6E0B6A0B50000AD8B4C7
:102AEE007BEF15F0A1EF15F00A502B0AD8B468EF62
:102AFE0015F0060AD8B464EF15F0A1EF15F010C06A
:102B0E0001F011C002F0000E046E0A0E036EFFEC0F
:102B1E001CF008C0F6FF09C0F7FF0800F550015E73
:102B2E00000E025A300E0124106E000E0220116E9D
:102B3E0068EF15F0D00E0A6EFF0E0B6E08C0F6FF92
:102B4E0009C0F7FF0800F5500C6E0D6A0A500C26EE
:102B5E000B500D220D5009E10A0E0C5CD8A0BAEFF5
:102B6E0015F0BCEF15F086EF15F00E500F10D8A42F
:102B7E00C3EF15F0C5EF15F0D3EF15F010C00AF046
:102B8E0011C00BF00A1E0B1E0A4A0B2A0AC008F0CF
:102B9E000BC009F0D7EF15F010C008F011C009F006
:102BAE001200033404340A6E0A50D8A4E1EF15F073
:102BBE00E3EF15F0EDEF15F0000E016E000E026E54
:102BCE00000E036E000E046E5AEF16F001C005F0F3
:102BDE0002C006F003C007F004C008F0200EFDEF9F
:102BEE0015F0D8900832073206320532E82EF8EF8B
:102BFE0015F00550096E038EFF0E0116FF0E02161C
:102C0E00FF0E0316000E0416960E0A5E0ABE14EF91
:102C1E0016F012EF16F02AEF16F00A50800A970FF0
:102C2E00D8B01CEF16F01EEF16F020EF16F0E3EF03
:102C3E0015F0D89004320332023201320A3E20EFF0
:102C4E0016F042EF16F01F0E0A6430EF16F032EF58
:102C5E0016F03AEF16F0E3EF15F0D8900136023683
:102C6E00033604360A060A50D8A440EF16F042EF97
:102C7E0016F034EF16F00950D8B448EF16F04AEFBC
:102C8E0016F052EF16F0041E031E021E016C000E0B
:102C9E0002220322042201C001F002C002F003C08E
:102CAE0003F004C004F01200000E2814306E000E63
:102CBE002914316E800E2A14326E7F0E2B14336E51
:102CCE003050311032103310D8A470EF16F072EF6E
:102CDE0016F07AEF16F0000E286E000E296E000E1A
:102CEE002A6E000E2B6E000E2C14306E000E2D145C
:102CFE00316E800E2E14326E7F0E2F14336E3050C6
:102D0E00311032103310D8A48FEF16F091EF16F069
:102D1E0099EF16F0000E2C6E000E2D6E000E2E6E1C
:102D2E00000E2F6E2BAE9EEF16F0A0EF16F0A9EF51
:102D3E0016F0286C291ED8B0292A2A1ED8B02A2AA5
:102D4E00800E2B562FAEAEEF16F0B0EF16F0B9EF99
:102D5E0016F02C6C2D1ED8B02D2A2E1ED8B02E2A71
:102D6E00800E2F56000E281A000E291A000E2A1A4F
:102D7E00800E2B1A000E2C1A000E2D1A000E2E1A73
:102D8E00800E2F1A2C50285C2D5029582E502A5860
:102D9E002F502B58D8B0D6EF16F0D8EF16F0DBEF39
:102DAE0016F0D890DCEF16F0D8801200C7C00BF0EA
:102DBE00C8C00CF0C9C00DF0CAC00EF001C00BF0B7
:102DCE0002C00CF003C00DF004C00EF00BC005F0F5
:102DDE000CC006F00DC007F00EC008F0180EFDEF87
:102DEE0016F0D8900832073206320532E82EF8EF88
:102DFE0016F00550096E0A6A09500A10D8A40AEF97
:102E0E0017F00CEF17F02CEF17F0D8900B34056E6F
:102E1E000C34066E0D34076E0E34086E0550061017
:102E2E0007100810D8A41EEF17F020EF17F026EFAA
:102E3E0017F0000E026E020E016E5BEF17F0000E21
:102E4E00026E030E016E5BEF17F009280A10D8A46C
:102E5E0033EF17F035EF17F057EF17F00BC005F003
:102E6E000CC006F00DC007F00EC008F0090ED89089
:102E7E000536063607360836E82E3EEF17F00550B3
:102E8E00061007100810D8B44FEF17F052EF17F0D6
:102E9E00010E53EF17F0000E016E026A5BEF17F092
:102EAE00000E026E040E016E1200180E936E180EB6
:102EBE00816E060EC16E000E956E000E966E000EA1
:102ECE00836E9490969094948294000E926E000E5F
:102EDE00956E84908280F4EC1AF081B879EF17F039
:102EEE007BEF17F0AFEF17F092EC1AF071EC14F0D5
:102EFE001FEC1DF0020E0001C26F040EC16FBA0E60
:102F0E00E82EFED7C12FFCD7C22FFAD700F0010E44
:102F1E00E9EC1CF0000E096E010E086E000E0B6E31
:102F2E00010E0A6E1B0E0C6E080E0D6EBBEC1CF025
:102F3E008480040E0001C26F0C0EC16F330EE82E9A
:102F4E00FED7C12FFCD7C22FFAD700D074EF17F0DF
:102F5E0081A6B4EF17F0B6EF17F074EF17F0849068
:102F6E00010EE9EC1CF0000E096E010E086E000E4B
:102F7E000B6E010E0A6E320E0C6E080E0D6EBBEC51
:102F8E001CF08280820E0001C16FDD0EE82EFED78E
:102F9E00C12FFCD700D074EF17F000EF00F001C086
:102FAE0008F002C009F003C00AF004C00BF00506D9
:102FBE00D8A00606052806E10628D8A4E9EF17F0E2
:102FCE00EBEF17F0F8EF17F0000E026E000E016E29
:102FDE0040EF18F0084A092A0A4A0B2A0506D8A01B
:102FEE00060608C0D9FF09C0DAFFDF50D8B402EFD9
:102FFE0018F004EF18F02FEF18F00AC0F6FF0BC010
:10300E00F7FF0800F5500009D8B410EF18F012EFD2
:10301E0018F02FEF18F005500610D8B419EF18F06D
:10302E001BEF18F02FEF18F008C0D9FF09C0DAFF18
:10303E00DF50076E0AC0F6FF0BC0F7FF0800F55011
:10304E000718D8B42DEF18F02FEF18F0F1EF17F096
:10305E0008C0D9FF09C0DAFFDF50076E0AC0F6FFBD
:10306E000BC0F7FF0800F550075C016E026AD8A08E
:10307E000206120003500410D8B448EF18F04AEFBD
:10308E0018F053EF18F003500410D8A451EF18F0B5
:10309E0053EF18F058EF18F0015022EC1DF0A5EF89
:1030AE0018F020EE09F00350D9260450DA22DE5033
:1030BE00DE10D8B465EF18F067EF18F082EF18F055
:1030CE0020EE09F00350D9260450DA2210EE03F058
:1030DE000350E1260450E222DE50E65CE650800A00
:1030EE00096EDE50800A0958D8B080EF18F082EFD2
:1030FE0018F0A5EF18F020EE03F00350D926045077
:10310E00DA22DECF05F0DDCF06F003C0D9FF04C012
:10311E00DAFFDECF07F0DDCF08F005500724D96EB9
:10312E0006500820DA6E01C0DFFF20EE03F00350D8
:10313E00D9260450DA22DE2A000EDD22120000010A
:10314E00D1A1ACEF18F0AEEF18F0B8EF18F013C035
:10315E000AF014C00BF011C00CF012C00DF0EAEC26
:10316E001BF016BEBDEF18F0BFEF18F0C5EF18F04C
:10317E0015C01AF016C01BF0C9EF18F0000E1B6E2A
:10318E00000E1A6E000E196E000E186EDBEF18F0A0
:10319E00000E026E200E016E11C003F012C004F07C
:1031AE0041EC18F0184A192A1A50185C1950800A66
:1031BE00176E1B50800A1758D8A0E8EF18F0EAEFE8
:1031CE0018F0CFEF18F00001D1B1F0EF18F0F2EFD8
:1031DE0018F0FCEF18F013C00AF014C00BF011C079
:1031EE000CF012C00DF0EAEC1BF013C001F014C08D
:1031FE0002F0A0EC1CF01A500124116E1B5002209C
:10320E00126E1200000E066E04BE12EF19F010EFD1
:10321E0019F018EF19F0036C041ED8B0042A010E31
:10322E00066E02BE1FEF19F01DEF19F025EF19F013
:10323E00016C021ED8B0022A010E061A000E086E8C
:10324E00000E076E03500410D8B430EF19F032EFB1
:10325E0019F05AEF19F0010E056E3AEF19F0D890E9
:10326E0003360436052A04AE3FEF19F041EF19F08C
:10327E0036EF19F0D890073608360350015C04502B
:10328E000258D8A04DEF19F04FEF19F054EF19F086
:10329E000350015E0450025A0780D8900432033264
:1032AE00052E41EF19F00650D8B460EF19F062EF19
:1032BE0019F066EF19F0076C081ED8B0082A07C07F
:1032CE0001F008C002F01200000E066E02BE74EF8E
:1032DE0019F072EF19F07AEF19F0016C021ED8B0E6
:1032EE00022A010E066E04BE81EF19F07FEF19F06F
:1032FE0085EF19F0036C041ED8B0042A0350041095
:10330E00D8B48CEF19F08EEF19F0B2EF19F0010E60
:10331E00056E96EF19F0D89003360436052A04AEE2
:10332E009BEF19F09DEF19F092EF19F00350015C2D
:10333E0004500258D8A0A6EF19F0A8EF19F0ACEF80
:10334E0019F00350015E0450025AD8900432033231
:10335E00052E9DEF19F00650D8B4B8EF19F0BAEF5C
:10336E0019F0BEEF19F0016C021ED8B0022A01C08E
:10337E0001F002C002F01200000E0114096E000EE0
:10338E0002140A6E800E03140B6E7F0E04140C6E64
:10339E0009500A100B100C10D8A4D8EF19F0DAEF60
:1033AE0019F0E2EF19F0000E016E000E026E000E23
:1033BE00036E000E046E000E0514096E000E061448
:1033CE000A6E800E07140B6E7F0E08140C6E0950D9
:1033DE000A100B100C10D8A4F7EF19F0F9EF19F032
:1033EE0001EF1AF0000E056E000E066E000E076E4F
:1033FE00000E086E055001180FE1065002180CE180
:10340E000750031809E108500418D8B411EF1AF048
:10341E0013EF1AF016EF1AF0D89017EF1AF0D880B3
:10342E001200066E000E076E030632EF1AF00350FE
:10343E00800F076E4FEF1AF00350C00F076E4FEF5D
:10344E001AF00350900F076E4FEF1AF00350D00F83
:10345E00076E4FEF1AF00650046E056A0550000A0B
:10346E00D8B43CEF1AF04FEF1AF00450010AD8B45A
:10347E001EEF1AF0030AD8B423EF1AF0010AD8B4DB
:10348E0028EF1AF0070AD8B42DEF1AF04FEF1AF002
:10349E000750D8B455EF1AF057EF1AF05AEF1AF04A
:1034AE000750E9EC1CF0120079EF1AF003C0F6FF9A
:1034BE0004C0F7FFF86A070EF76403D00800F55052
:1034CE0005D0F6CFE1FFF7CFE2FFE7502DEC1CF071
:1034DE00034A042A1A0E056EF80EE82EFED7052EA4
:1034EE00FCD700D003C0F6FF04C0F7FFF86A070E42
:1034FE00F76403D00800F55005D0F6CFE1FFF7CF03
:10350E00E2FFE7500009D8A48FEF1AF091EF1AF0FE
:10351E005DEF1AF01200818E000E826E000E846E28
:10352E008284010EE9EC1CF0000E096E010E086E8D
:10353E00000E0B6E010E0A6E270E0C6E080E0D6E2F
:10354E00BBEC1CF0000E096E020E086E000E0B6E28
:10355E00010E0A6E010E0C6E080E0D6EBBEC1CF009
:10356E00040E116E0C0E106E340EE82EFED7102EB9
:10357E00FCD7112EFAD7120094C05EF095C05FF002
:10358E00000E0001CC6F000ECB6FE1EF1AF092C06F
:10359E004CF093C04DF05E0E4E6E000E4F6E96C008
:1035AE0050F097C051F096EC0CF04C500001CB2728
:1035BE004D50CC235EC0F6FF5FC0F7FF0800F550FC
:1035CE000009D8A4EDEF1AF0EFEF1AF0CEEF1AF0D3
:1035DE00CBC092F0CCC093F01200000E046E0F0E12
:1035EE00C16E000E836E8450F80B846E000E956EC5
:1035FE009650F80B966E15EF1BF0D30E0424D96E71
:10360E00DA6A000EDA22DF50E9EC1CF0042A0D0E05
:10361E00036EFC0EE82EFED7032EFCD7D30E042429
:10362E00D96EDA6A000EDA22DF50D8A421EF1BF031
:10363E0023EF1BF004EF1BF0120003C007F004C0D1
:10364E0008F001C009F002C00AF00750056E0850DC
:10365E00066E074A082A05C0F6FF06C0F7FFF86A8D
:10366E0009C0D9FF0AC0DAFF094A0A2A070EF76411
:10367E0003D00800F55005D0F6CFE1FFF7CFE2FFFB
:10368E00E750DF6EDF50D8A44FEF1BF051EF1BF069
:10369E002CEF1BF012009C0E0001A06F000EA16F0C
:1036AE0098C0A2F099C0A3F0000EA66F000EA56FF1
:1036BE00000EAC6F000EAB6FA20E926F000E936FEA
:1036CE009AC094F09BC095F0A00E966F000E976F67
:1036DE00C3EC1AF00001A5519825D96EA651992177
:1036EE00DA6E000EDF6E1200010E076E200E01184C
:1036FE000210D8B485EF1BF087EF1BF0A0EF1BF084
:10370E00F70E036EFF0E046E01C005F002C006F048
:10371E000350052604500622065009E1050E055CED
:10372E00D8A09CEF1BF09EEF1BF0A0EF1BF0000E3D
:10373E00076E07C001F0026A1200BF0E096EFF0E7F
:10374E000A6E07C00BF008C00CF009500B260A5089
:10375E000C220C5007E11A0E0B5CD8B0B9EF1BF01F
:10376E00BBEF1BF0C2EF1BF0200E0710076E0850C8
:10377E00086EC6EF1BF007C007F008C008F0120075
:10378E00000E3C1A000E3D1A000E3E1A800E3F1A15
:10379E0038C028F039C029F03AC02AF03BC02BF0CF
:1037AE003CC02CF03DC02DF03EC02EF03FC02FF09F
:1037BE0036EC0AF028C038F029C039F02AC03AF0A9
:1037CE002BC03BF01200000E106E000E0F6EFBEFC2
:1037DE001BF00EC001F0026A0CC003F00DC004F025
:1037EE0041EC18F00F4A102A0F500A24D96E1050CF
:1037FE000B20DA6EDF500E6E0E50D8A409EF1CF0BF
:10380E000BEF1CF0F0EF1BF01200360EF66E3A0EB8
:10381E00F76E000EF86E00EED3F010EE07F0090012
:10382E00F5CFEEFFE550E150FAE101EE00F0500E5B
:10383E00EE6AE806FDE100EEC3F0100EEE6AE80651
:10384E00FDE1000EF86E00015CEF17F0026E84844D
:10385E0084920D0E016EFC0EE82EFED7012EFCD7C3
:10386E0002C083FF84821A0E016EF80EE82EFED778
:10387E00012EFCD700D084921A0E016EF80EE82E9F
:10388E00FED7012EFCD700D01200BF0E036EFF0E26
:10389E00046E01C005F002C006F003500526045068
:1038AE00062206500AE11A0E055CD8A061EF1CF044
:1038BE0064EF1CF0010E65EF1CF0000E016E026A43
:1038CE0012000150021003100410D8B471EF1CF056
:1038DE0073EF1CF07BEF1CF0000E011A000E021AA3
:1038EE00000E031A800E041A01C001F002C002F08D
:1038FE0003C003F004C004F01200D00E036EFF0EDE
:10390E00046E01C005F002C006F0035005260450F7
:10391E00062206500AE10A0E055CD8A099EF1CF0AB
:10392E009CEF1CF0010E9DEF1CF0000E016E026A62
:10393E00120001C003F002C004F0A8EF1CF0014A0F
:10394E00022A01C0D9FF02C0DAFFDF50D8A4B2EFBD
:10395E001CF0B4EF1CF0A6EF1CF00350015C016EDE
:10396E0004500258026E12000AC003F0085018EC00
:10397E001AF00CC003F00DC004F05BEC1AF0020E4E
:10398E000F6E040E0E6EBA0EE82EFED70E2EFCD75C
:10399E000F2EFAD700D01200C282C2B2D9EF1CF09D
:1039AE00DBEF1CF0D4EF1CF0C4CF05F0066A055017
:1039BE00036EC350056E03C006F005C001F006C0CD
:1039CE0002F01200026E849402C083FF84820D0EF8
:1039DE00016EFC0EE82EFED7012EFCD784921A0E35
:1039EE00016EF80EE82EFED7012EFCD700D0120085
:1039FE0001500302F3CF05F0F4CF06F0015004029C
:103A0E00F350062602500302F350062605C001F0BD
:103A1E0006C002F012009280000EC26E0E0EC16E33
:0F3A2E00D90EC06EC28012003838380C06010065
:083A3E008294819E1200120027
:020000040020DA
:08000000FFFFFFFFFFFFFFFF00
:020000040030CA
:0E00000000051F1EFF0185FF0FC00FE00F401F
:00000001FF
